{
  "contractName": "SmartCrowd",
  "abi": [
    {
      "anonymous": false,
      "inputs": [
        {
          "indexed": false,
          "internalType": "string",
          "name": "user_name",
          "type": "string"
        },
        {
          "indexed": false,
          "internalType": "string",
          "name": "name",
          "type": "string"
        },
        {
          "indexed": false,
          "internalType": "string",
          "name": "identity_number",
          "type": "string"
        },
        {
          "indexed": false,
          "internalType": "string",
          "name": "email",
          "type": "string"
        }
      ],
      "name": "PrintAllWorkers",
      "type": "event"
    },
    {
      "inputs": [],
      "name": "userCount",
      "outputs": [
        {
          "internalType": "uint256",
          "name": "",
          "type": "uint256"
        }
      ],
      "stateMutability": "view",
      "type": "function"
    },
    {
      "inputs": [
        {
          "internalType": "uint256",
          "name": "",
          "type": "uint256"
        }
      ],
      "name": "users",
      "outputs": [
        {
          "internalType": "uint256",
          "name": "id",
          "type": "uint256"
        },
        {
          "internalType": "string",
          "name": "user_name",
          "type": "string"
        },
        {
          "internalType": "string",
          "name": "name",
          "type": "string"
        },
        {
          "internalType": "string",
          "name": "identity_number",
          "type": "string"
        },
        {
          "internalType": "string",
          "name": "email",
          "type": "string"
        },
        {
          "internalType": "string",
          "name": "user_type",
          "type": "string"
        }
      ],
      "stateMutability": "view",
      "type": "function"
    },
    {
      "inputs": [
        {
          "internalType": "uint256",
          "name": "id",
          "type": "uint256"
        },
        {
          "internalType": "string",
          "name": "user_name",
          "type": "string"
        },
        {
          "internalType": "string",
          "name": "name",
          "type": "string"
        },
        {
          "internalType": "string",
          "name": "identity_number",
          "type": "string"
        },
        {
          "internalType": "string",
          "name": "email",
          "type": "string"
        },
        {
          "internalType": "string",
          "name": "user_type",
          "type": "string"
        }
      ],
      "name": "registerUser",
      "outputs": [],
      "stateMutability": "nonpayable",
      "type": "function"
    },
    {
      "inputs": [
        {
          "internalType": "string",
          "name": "user_name",
          "type": "string"
        }
      ],
      "name": "deleteUser",
      "outputs": [],
      "stateMutability": "nonpayable",
      "type": "function"
    },
    {
      "inputs": [],
      "name": "ShowAllWorkers",
      "outputs": [],
      "stateMutability": "nonpayable",
      "type": "function"
    },
    {
      "inputs": [],
      "name": "ShowAllRequesters",
      "outputs": [],
      "stateMutability": "nonpayable",
      "type": "function"
    },
    {
      "inputs": [
        {
          "internalType": "string",
          "name": "cnic",
          "type": "string"
        }
      ],
      "name": "verifyCNIC",
      "outputs": [
        {
          "internalType": "bool",
          "name": "",
          "type": "bool"
        }
      ],
      "stateMutability": "view",
      "type": "function"
    },
    {
      "inputs": [
        {
          "internalType": "string",
          "name": "cnic",
          "type": "string"
        }
      ],
      "name": "verifyCNICAction",
      "outputs": [
        {
          "internalType": "bool",
          "name": "",
          "type": "bool"
        }
      ],
      "stateMutability": "view",
      "type": "function"
    },
    {
      "inputs": [
        {
          "internalType": "string",
          "name": "a",
          "type": "string"
        },
        {
          "internalType": "string",
          "name": "b",
          "type": "string"
        }
      ],
      "name": "compareStrings",
      "outputs": [
        {
          "internalType": "bool",
          "name": "",
          "type": "bool"
        }
      ],
      "stateMutability": "pure",
      "type": "function"
    }
  ],
  "bytecode": "0x60806040526000805534801561001457600080fd5b5061181b806100246000396000f3fe608060405234801561001057600080fd5b50600436106100935760003560e01c8063436e911011610066578063436e9110146101255780638386bcbc14610155578063b54ba17814610171578063bed34bba1461017b578063d3695161146101ab57610093565b806307973ccf1461009857806324db65cb146100b65780632c9d90ed146100c0578063365b98b2146100f0575b600080fd5b6100a06101c7565b6040516100ad9190610d21565b60405180910390f35b6100be6101cd565b005b6100da60048036038101906100d59190610e96565b610363565b6040516100e79190610efa565b60405180910390f35b61010a60048036038101906101059190610f41565b61044a565b60405161011c96959493929190610fed565b60405180910390f35b61013f600480360381019061013a9190610e96565b61072e565b60405161014c9190610efa565b60405180910390f35b61016f600480360381019061016a9190611071565b61074b565b005b61017961092b565b005b6101956004803603810190610190919061118a565b610ac1565b6040516101a29190610efa565b60405180910390f35b6101c560048036038101906101c09190610e96565b610b1a565b005b60005481565b60005b6000548111610360576102b66002600083815260200190815260200160002060050180546101fd90611231565b80601f016020809104026020016040519081016040528092919081815260200182805461022990611231565b80156102765780601f1061024b57610100808354040283529160200191610276565b820191906000526020600020905b81548152906001019060200180831161025957829003601f168201915b50505050506040518060400160405280600681526020017f576f726b65720000000000000000000000000000000000000000000000000000815250610ac1565b1561034d577f2fc06d8417cf3d7896babb29534d0609596e7e3ea2fb75502f7cae3251bbabcc6002600083815260200190815260200160002060010160026000848152602001908152602001600020600201600260008581526020019081526020016000206003016002600086815260200190815260200160002060040160405161034494939291906112fb565b60405180910390a15b80806103589061138b565b9150506101d0565b50565b600080600190505b60005481101561043f5761041d60026000838152602001908152602001600020600301805461039990611231565b80601f01602080910402602001604051908101604052809291908181526020018280546103c590611231565b80156104125780601f106103e757610100808354040283529160200191610412565b820191906000526020600020905b8154815290600101906020018083116103f557829003601f168201915b505050505084610ac1565b1561042c576001915050610445565b80806104379061138b565b91505061036b565b50600090505b919050565b600260205280600052604060002060009150905080600001549080600101805461047390611231565b80601f016020809104026020016040519081016040528092919081815260200182805461049f90611231565b80156104ec5780601f106104c1576101008083540402835291602001916104ec565b820191906000526020600020905b8154815290600101906020018083116104cf57829003601f168201915b50505050509080600201805461050190611231565b80601f016020809104026020016040519081016040528092919081815260200182805461052d90611231565b801561057a5780601f1061054f5761010080835404028352916020019161057a565b820191906000526020600020905b81548152906001019060200180831161055d57829003601f168201915b50505050509080600301805461058f90611231565b80601f01602080910402602001604051908101604052809291908181526020018280546105bb90611231565b80156106085780601f106105dd57610100808354040283529160200191610608565b820191906000526020600020905b8154815290600101906020018083116105eb57829003601f168201915b50505050509080600401805461061d90611231565b80601f016020809104026020016040519081016040528092919081815260200182805461064990611231565b80156106965780601f1061066b57610100808354040283529160200191610696565b820191906000526020600020905b81548152906001019060200180831161067957829003601f168201915b5050505050908060050180546106ab90611231565b80601f01602080910402602001604051908101604052809291908181526020018280546106d790611231565b80156107245780601f106106f957610100808354040283529160200191610724565b820191906000526020600020905b81548152906001019060200180831161070757829003601f168201915b5050505050905086565b600061073982610363565b61074257600080fd5b60019050919050565b6000861161075857600080fd5b600085511161076657600080fd5b600084511161077457600080fd5b600083511161078257600080fd5b600082511161079057600080fd5b600081511161079e57600080fd5b6040518060c0016040528087815260200186815260200185815260200184815260200183815260200182815250600260008881526020019081526020016000206000820151816000015560208201518160010190816107fd919061156a565b506040820151816002019081610813919061156a565b506060820151816003019081610829919061156a565b50608082015181600401908161083f919061156a565b5060a0820151816005019081610855919061156a565b50905050600160026000888152602001908152602001600020908060018154018082558091505060019003906000526020600020906006020160009091909190915060008201548160000155600182018160010190816108b59190611652565b50600282018160020190816108ca9190611652565b50600382018160030190816108df9190611652565b50600482018160040190816108f49190611652565b50600582018160050190816109099190611652565b50505060008081548092919061091e9061138b565b9190505550505050505050565b60005b6000548111610abe57610a1460026000838152602001908152602001600020600501805461095b90611231565b80601f016020809104026020016040519081016040528092919081815260200182805461098790611231565b80156109d45780601f106109a9576101008083540402835291602001916109d4565b820191906000526020600020905b8154815290600101906020018083116109b757829003601f168201915b50505050506040518060400160405280600981526020017f5265717565737465720000000000000000000000000000000000000000000000815250610ac1565b15610aab577f2fc06d8417cf3d7896babb29534d0609596e7e3ea2fb75502f7cae3251bbabcc60026000838152602001908152602001600020600101600260008481526020019081526020016000206002016002600085815260200190815260200160002060030160026000868152602001908152602001600020600401604051610aa294939291906112fb565b60405180910390a15b8080610ab69061138b565b91505061092e565b50565b600081604051602001610ad49190611776565b6040516020818303038152906040528051906020012083604051602001610afb9190611776565b6040516020818303038152906040528051906020012014905092915050565b6000815111610b2857600080fd5b60005b600180549050811015610ca757610bef60018281548110610b4f57610b4e61178d565b5b90600052602060002090600602016001018054610b6b90611231565b80601f0160208091040260200160405190810160405280929190818152602001828054610b9790611231565b8015610be45780601f10610bb957610100808354040283529160200191610be4565b820191906000526020600020905b815481529060010190602001808311610bc757829003601f168201915b505050505083610ac1565b15610c94576002600060026000848152602001908152602001600020600001548152602001908152602001600020600080820160009055600182016000610c369190610cab565b600282016000610c469190610cab565b600382016000610c569190610cab565b600482016000610c669190610cab565b600582016000610c769190610cab565b5050600080815480929190610c8a906117bc565b9190505550610ca7565b8080610c9f9061138b565b915050610b2b565b5050565b508054610cb790611231565b6000825580601f10610cc95750610ce8565b601f016020900490600052602060002090810190610ce79190610ceb565b5b50565b5b80821115610d04576000816000905550600101610cec565b5090565b6000819050919050565b610d1b81610d08565b82525050565b6000602082019050610d366000830184610d12565b92915050565b6000604051905090565b600080fd5b600080fd5b600080fd5b600080fd5b6000601f19601f8301169050919050565b7f4e487b7100000000000000000000000000000000000000000000000000000000600052604160045260246000fd5b610da382610d5a565b810181811067ffffffffffffffff82111715610dc257610dc1610d6b565b5b80604052505050565b6000610dd5610d3c565b9050610de18282610d9a565b919050565b600067ffffffffffffffff821115610e0157610e00610d6b565b5b610e0a82610d5a565b9050602081019050919050565b82818337600083830152505050565b6000610e39610e3484610de6565b610dcb565b905082815260208101848484011115610e5557610e54610d55565b5b610e60848285610e17565b509392505050565b600082601f830112610e7d57610e7c610d50565b5b8135610e8d848260208601610e26565b91505092915050565b600060208284031215610eac57610eab610d46565b5b600082013567ffffffffffffffff811115610eca57610ec9610d4b565b5b610ed684828501610e68565b91505092915050565b60008115159050919050565b610ef481610edf565b82525050565b6000602082019050610f0f6000830184610eeb565b92915050565b610f1e81610d08565b8114610f2957600080fd5b50565b600081359050610f3b81610f15565b92915050565b600060208284031215610f5757610f56610d46565b5b6000610f6584828501610f2c565b91505092915050565b600081519050919050565b600082825260208201905092915050565b60005b83811015610fa8578082015181840152602081019050610f8d565b60008484015250505050565b6000610fbf82610f6e565b610fc98185610f79565b9350610fd9818560208601610f8a565b610fe281610d5a565b840191505092915050565b600060c0820190506110026000830189610d12565b81810360208301526110148188610fb4565b905081810360408301526110288187610fb4565b9050818103606083015261103c8186610fb4565b905081810360808301526110508185610fb4565b905081810360a08301526110648184610fb4565b9050979650505050505050565b60008060008060008060c0878903121561108e5761108d610d46565b5b600061109c89828a01610f2c565b965050602087013567ffffffffffffffff8111156110bd576110bc610d4b565b5b6110c989828a01610e68565b955050604087013567ffffffffffffffff8111156110ea576110e9610d4b565b5b6110f689828a01610e68565b945050606087013567ffffffffffffffff81111561111757611116610d4b565b5b61112389828a01610e68565b935050608087013567ffffffffffffffff81111561114457611143610d4b565b5b61115089828a01610e68565b92505060a087013567ffffffffffffffff81111561117157611170610d4b565b5b61117d89828a01610e68565b9150509295509295509295565b600080604083850312156111a1576111a0610d46565b5b600083013567ffffffffffffffff8111156111bf576111be610d4b565b5b6111cb85828601610e68565b925050602083013567ffffffffffffffff8111156111ec576111eb610d4b565b5b6111f885828601610e68565b9150509250929050565b7f4e487b7100000000000000000000000000000000000000000000000000000000600052602260045260246000fd5b6000600282049050600182168061124957607f821691505b60208210810361125c5761125b611202565b5b50919050565b60008190508160005260206000209050919050565b6000815461128481611231565b61128e8186610f79565b945060018216600081146112a957600181146112bf576112f2565b60ff1983168652811515602002860193506112f2565b6112c885611262565b60005b838110156112ea578154818901526001820191506020810190506112cb565b808801955050505b50505092915050565b600060808201905081810360008301526113158187611277565b905081810360208301526113298186611277565b9050818103604083015261133d8185611277565b905081810360608301526113518184611277565b905095945050505050565b7f4e487b7100000000000000000000000000000000000000000000000000000000600052601160045260246000fd5b600061139682610d08565b91507fffffffffffffffffffffffffffffffffffffffffffffffffffffffffffffffff82036113c8576113c761135c565b5b600182019050919050565b60006020601f8301049050919050565b600082821b905092915050565b6000600883026114207fffffffffffffffffffffffffffffffffffffffffffffffffffffffffffffffff826113e3565b61142a86836113e3565b95508019841693508086168417925050509392505050565b6000819050919050565b600061146761146261145d84610d08565b611442565b610d08565b9050919050565b6000819050919050565b6114818361144c565b61149561148d8261146e565b8484546113f0565b825550505050565b600090565b6114aa61149d565b6114b5818484611478565b505050565b5b818110156114d9576114ce6000826114a2565b6001810190506114bb565b5050565b601f82111561151e576114ef81611262565b6114f8846113d3565b81016020851015611507578190505b61151b611513856113d3565b8301826114ba565b50505b505050565b600082821c905092915050565b600061154160001984600802611523565b1980831691505092915050565b600061155a8383611530565b9150826002028217905092915050565b61157382610f6e565b67ffffffffffffffff81111561158c5761158b610d6b565b5b6115968254611231565b6115a18282856114dd565b600060209050601f8311600181146115d457600084156115c2578287015190505b6115cc858261154e565b865550611634565b601f1984166115e286611262565b60005b8281101561160a578489015182556001820191506020850194506020810190506115e5565b868310156116275784890151611623601f891682611530565b8355505b6001600288020188555050505b505050505050565b60008154905061164b81611231565b9050919050565b818103611660575050611738565b6116698261163c565b67ffffffffffffffff81111561168257611681610d6b565b5b61168c8254611231565b6116978282856114dd565b6000601f8311600181146116c657600084156116b4578287015490505b6116be858261154e565b865550611731565b601f1984166116d487611262565b96506116df86611262565b60005b82811015611707578489015482556001820191506001850194506020810190506116e2565b868310156117245784890154611720601f891682611530565b8355505b6001600288020188555050505b5050505050505b565b600081905092915050565b600061175082610f6e565b61175a818561173a565b935061176a818560208601610f8a565b80840191505092915050565b60006117828284611745565b915081905092915050565b7f4e487b7100000000000000000000000000000000000000000000000000000000600052603260045260246000fd5b60006117c782610d08565b9150600082036117da576117d961135c565b5b60018203905091905056fea26469706673582212209711113d4e60caba9c16560b32554f238d16d735b26a6c2b8e876c51eea76e9f64736f6c63430008110033",
  "immutableReferences": {},
  "source": "// SPDX-License-Identifier: GPL-3.0\r\n\r\npragma solidity >=0.7.0 <0.9.0;\r\n\r\n// pragma solidity ^0.5.16;\r\n\r\ncontract SmartCrowd {\r\n    uint256 public userCount = 0;\r\n\r\n    struct User {\r\n        uint256 id;\r\n        string user_name;\r\n        string name;\r\n        string identity_number;\r\n        string email;\r\n        string user_type;\r\n        //address user_address;\r\n    }\r\n\r\n    User[] private userList;\r\n\r\n    mapping(uint256 => User) public users;\r\n    event PrintAllWorkers(\r\n        string user_name,\r\n        string name,\r\n        string identity_number,\r\n        string email\r\n    );\r\n\r\n    function registerUser(\r\n        uint256 id,\r\n        string memory user_name,\r\n        string memory name,\r\n        string memory identity_number,\r\n        string memory email,\r\n        string memory user_type\r\n    ) public {\r\n        require(id > 0);\r\n        require(bytes(user_name).length > 0);\r\n        require(bytes(name).length > 0);\r\n        require(bytes(identity_number).length > 0);\r\n        require(bytes(email).length > 0);\r\n        require(bytes(user_type).length > 0);\r\n        users[id] = User(\r\n            id,\r\n            user_name,\r\n            name,\r\n            identity_number,\r\n            email,\r\n            user_type\r\n        );\r\n        userList.push(users[id]);\r\n        userCount++;\r\n    }\r\n\r\n    function deleteUser(string memory user_name) public {\r\n        require(bytes(user_name).length > 0);\r\n        for (uint256 i = 0; i < userList.length; i++) {\r\n            if (compareStrings(userList[i].user_name, user_name)) {\r\n                delete users[users[i].id];\r\n\r\n                userCount--;\r\n                break;\r\n            }\r\n        }\r\n    }\r\n\r\n    function ShowAllWorkers() public {\r\n        for (uint256 i = 0; i <= userCount; i++) {\r\n            if (compareStrings(users[i].user_type, \"Worker\")) {\r\n                emit PrintAllWorkers(\r\n                    users[i].user_name,\r\n                    users[i].name,\r\n                    users[i].identity_number,\r\n                    users[i].email\r\n                );\r\n            }\r\n        }\r\n    }\r\n\r\n    function ShowAllRequesters() public {\r\n        for (uint256 i = 0; i <= userCount; i++) {\r\n            if (compareStrings(users[i].user_type, \"Requester\")) {\r\n                emit PrintAllWorkers(\r\n                    users[i].user_name,\r\n                    users[i].name,\r\n                    users[i].identity_number,\r\n                    users[i].email\r\n                );\r\n            }\r\n        }\r\n    }\r\n\r\n    function verifyCNIC(string memory cnic) public view returns (bool) {\r\n        require(verifyCNICAction(cnic));\r\n        return true;\r\n    }\r\n\r\n    function verifyCNICAction(string memory cnic) public view returns (bool) {\r\n        for (uint256 i = 1; i < userCount; i++) {\r\n            if (compareStrings(users[i].identity_number, cnic)) {\r\n                return true;\r\n            }\r\n        }\r\n        return false;\r\n    }\r\n\r\n    function compareStrings(string memory a, string memory b)\r\n        public\r\n        pure\r\n        returns (bool)\r\n    {\r\n        return keccak256(abi.encodePacked(a)) == keccak256(abi.encodePacked(b));\r\n    }\r\n}\r\n",
  "sourcePath": "C:\\Users\\HP\\Documents\\ABDULLAH\\MSCS\\ms-project-frontend\\contracts\\SmartCrowd.sol",
  "compiler": {
    "name": "solc",
    "version": "0.8.17+commit.8df45f5f.Emscripten.clang"
  },
  "schemaVersion": "3.4.10",
  "updatedAt": "2023-01-01T17:17:34.009Z",
  "devdoc": {
    "kind": "dev",
    "methods": {},
    "version": 1
  },
  "userdoc": {
    "kind": "user",
    "methods": {},
    "version": 1
  }
}